{
	"data": {
		"bytecode": {
			"linkReferences": {},
			"object": "608060405234801561001057600080fd5b50611376806100206000396000f3fe608060405234801561001057600080fd5b50600436106100415760003560e01c80630f41a0b9146100465780631563700f1461007657806391aed50814610092575b600080fd5b610060600480360381019061005b91906102da565b61009c565b60405161006d9190610316565b60405180910390f35b610090600480360381019061008b9190610331565b610151565b005b61009a6101fe565b005b60008082815481106100b1576100b0610371565b5b9060005260206000200160009054906101000a900473ffffffffffffffffffffffffffffffffffffffff1673ffffffffffffffffffffffffffffffffffffffff16632e64cec16040518163ffffffff1660e01b8152600401602060405180830381865afa158015610126573d6000803e3d6000fd5b505050506040513d601f19601f8201168201806040525081019061014a91906103b5565b9050919050565b6000828154811061016557610164610371565b5b9060005260206000200160009054906101000a900473ffffffffffffffffffffffffffffffffffffffff1673ffffffffffffffffffffffffffffffffffffffff16636057361d826040518263ffffffff1660e01b81526004016101c89190610316565b600060405180830381600087803b1580156101e257600080fd5b505af11580156101f6573d6000803e3d6000fd5b505050505050565b600060405161020c90610291565b604051809103906000f080158015610228573d6000803e3d6000fd5b5090506000819080600181540180825580915050600190039060005260206000200160009091909190916101000a81548173ffffffffffffffffffffffffffffffffffffffff021916908373ffffffffffffffffffffffffffffffffffffffff16021790555050565b610f5e80620003e383390190565b600080fd5b6000819050919050565b6102b7816102a4565b81146102c257600080fd5b50565b6000813590506102d4816102ae565b92915050565b6000602082840312156102f0576102ef61029f565b5b60006102fe848285016102c5565b91505092915050565b610310816102a4565b82525050565b600060208201905061032b6000830184610307565b92915050565b600080604083850312156103485761034761029f565b5b6000610356858286016102c5565b9250506020610367858286016102c5565b9150509250929050565b7f4e487b7100000000000000000000000000000000000000000000000000000000600052603260045260246000fd5b6000815190506103af816102ae565b92915050565b6000602082840312156103cb576103ca61029f565b5b60006103d9848285016103a0565b9150509291505056fe60806040526040518060400160405280600181526020016040518060400160405280600481526020017f6a61636b00000000000000000000000000000000000000000000000000000000815250815250600260008201518160000155602082015181600101908162000072919062000303565b5050503480156200008257600080fd5b50620003ea565b600081519050919050565b7f4e487b7100000000000000000000000000000000000000000000000000000000600052604160045260246000fd5b7f4e487b7100000000000000000000000000000000000000000000000000000000600052602260045260246000fd5b600060028204905060018216806200010b57607f821691505b602082108103620001215762000120620000c3565b5b50919050565b60008190508160005260206000209050919050565b60006020601f8301049050919050565b600082821b905092915050565b6000600883026200018b7fffffffffffffffffffffffffffffffffffffffffffffffffffffffffffffffff826200014c565b6200019786836200014c565b95508019841693508086168417925050509392505050565b6000819050919050565b6000819050919050565b6000620001e4620001de620001d884620001af565b620001b9565b620001af565b9050919050565b6000819050919050565b6200020083620001c3565b620002186200020f82620001eb565b84845462000159565b825550505050565b600090565b6200022f62000220565b6200023c818484620001f5565b505050565b5b8181101562000264576200025860008262000225565b60018101905062000242565b5050565b601f821115620002b3576200027d8162000127565b62000288846200013c565b8101602085101562000298578190505b620002b0620002a7856200013c565b83018262000241565b50505b505050565b600082821c905092915050565b6000620002d860001984600802620002b8565b1980831691505092915050565b6000620002f38383620002c5565b9150826002028217905092915050565b6200030e8262000089565b67ffffffffffffffff8111156200032a576200032962000094565b5b620003368254620000f2565b6200034382828562000268565b600060209050601f8311600181146200037b576000841562000366578287015190505b620003728582620002e5565b865550620003e2565b601f1984166200038b8662000127565b60005b82811015620003b5578489015182556001820191506020850194506020810190506200038e565b86831015620003d55784890151620003d1601f891682620002c5565b8355505b6001600288020188555050505b505050505050565b610b6480620003fa6000396000f3fe608060405234801561001057600080fd5b506004361061009e5760003560e01c80636d83bc57116100665780636d83bc571461015d5780636f760f411461017b5780638bab8dd514610197578063b2d4efcd146101c7578063e6316a4f146101e65761009e565b80630bc09de7146100a35780632e64cec1146100d35780635786e1e3146100f157806357e83311146101225780636057361d14610141575b600080fd5b6100bd60048036038101906100b8919061050c565b610202565b6040516100ca9190610548565b60405180910390f35b6100db610226565b6040516100e89190610548565b60405180910390f35b61010b6004803603810190610106919061050c565b61022f565b6040516101199291906105f3565b60405180910390f35b61012a6102eb565b6040516101389291906105f3565b60405180910390f35b61015b6004803603810190610156919061050c565b610385565b005b61016561038f565b6040516101729190610548565b60405180910390f35b61019560048036038101906101909190610758565b610395565b005b6101b160048036038101906101ac91906107b4565b6103f6565b6040516101be9190610548565b60405180910390f35b6101cf610424565b6040516101dd9291906105f3565b60405180910390f35b61020060048036038101906101fb9190610758565b6104be565b005b6001818154811061021257600080fd5b906000526020600020016000915090505481565b60008054905090565b6006818154811061023f57600080fd5b90600052602060002090600202016000915090508060000154908060010180546102689061082c565b80601f01602080910402602001604051908101604052809291908181526020018280546102949061082c565b80156102e15780601f106102b6576101008083540402835291602001916102e1565b820191906000526020600020905b8154815290600101906020018083116102c457829003601f168201915b5050505050905082565b60048060000154908060010180546103029061082c565b80601f016020809104026020016040519081016040528092919081815260200182805461032e9061082c565b801561037b5780601f106103505761010080835404028352916020019161037b565b820191906000526020600020905b81548152906001019060200180831161035e57829003601f168201915b5050505050905082565b8060008190555050565b60005481565b60405180604001604052808281526020018381525060046000820151816000015560208201518160010190816103cb9190610a09565b50905050806007836040516103e09190610b17565b9081526020016040518091039020819055505050565b6007818051602081018201805184825260208301602085012081835280955050505050506000915090505481565b600280600001549080600101805461043b9061082c565b80601f01602080910402602001604051908101604052809291908181526020018280546104679061082c565b80156104b45780601f10610489576101008083540402835291602001916104b4565b820191906000526020600020905b81548152906001019060200180831161049757829003601f168201915b5050505050905082565b5050565b6000604051905090565b600080fd5b600080fd5b6000819050919050565b6104e9816104d6565b81146104f457600080fd5b50565b600081359050610506816104e0565b92915050565b600060208284031215610522576105216104cc565b5b6000610530848285016104f7565b91505092915050565b610542816104d6565b82525050565b600060208201905061055d6000830184610539565b92915050565b600081519050919050565b600082825260208201905092915050565b60005b8381101561059d578082015181840152602081019050610582565b60008484015250505050565b6000601f19601f8301169050919050565b60006105c582610563565b6105cf818561056e565b93506105df81856020860161057f565b6105e8816105a9565b840191505092915050565b60006040820190506106086000830185610539565b818103602083015261061a81846105ba565b90509392505050565b600080fd5b600080fd5b7f4e487b7100000000000000000000000000000000000000000000000000000000600052604160045260246000fd5b610665826105a9565b810181811067ffffffffffffffff821117156106845761068361062d565b5b80604052505050565b60006106976104c2565b90506106a3828261065c565b919050565b600067ffffffffffffffff8211156106c3576106c261062d565b5b6106cc826105a9565b9050602081019050919050565b82818337600083830152505050565b60006106fb6106f6846106a8565b61068d565b90508281526020810184848401111561071757610716610628565b5b6107228482856106d9565b509392505050565b600082601f83011261073f5761073e610623565b5b813561074f8482602086016106e8565b91505092915050565b6000806040838503121561076f5761076e6104cc565b5b600083013567ffffffffffffffff81111561078d5761078c6104d1565b5b6107998582860161072a565b92505060206107aa858286016104f7565b9150509250929050565b6000602082840312156107ca576107c96104cc565b5b600082013567ffffffffffffffff8111156107e8576107e76104d1565b5b6107f48482850161072a565b91505092915050565b7f4e487b7100000000000000000000000000000000000000000000000000000000600052602260045260246000fd5b6000600282049050600182168061084457607f821691505b602082108103610857576108566107fd565b5b50919050565b60008190508160005260206000209050919050565b60006020601f8301049050919050565b600082821b905092915050565b6000600883026108bf7fffffffffffffffffffffffffffffffffffffffffffffffffffffffffffffffff82610882565b6108c98683610882565b95508019841693508086168417925050509392505050565b6000819050919050565b60006109066109016108fc846104d6565b6108e1565b6104d6565b9050919050565b6000819050919050565b610920836108eb565b61093461092c8261090d565b84845461088f565b825550505050565b600090565b61094961093c565b610954818484610917565b505050565b5b818110156109785761096d600082610941565b60018101905061095a565b5050565b601f8211156109bd5761098e8161085d565b61099784610872565b810160208510156109a6578190505b6109ba6109b285610872565b830182610959565b50505b505050565b600082821c905092915050565b60006109e0600019846008026109c2565b1980831691505092915050565b60006109f983836109cf565b9150826002028217905092915050565b610a1282610563565b67ffffffffffffffff811115610a2b57610a2a61062d565b5b610a35825461082c565b610a4082828561097c565b600060209050601f831160018114610a735760008415610a61578287015190505b610a6b85826109ed565b865550610ad3565b601f198416610a818661085d565b60005b82811015610aa957848901518255600182019150602085019450602081019050610a84565b86831015610ac65784890151610ac2601f8916826109cf565b8355505b6001600288020188555050505b505050505050565b600081905092915050565b6000610af182610563565b610afb8185610adb565b9350610b0b81856020860161057f565b80840191505092915050565b6000610b238284610ae6565b91508190509291505056fea2646970667358221220c92e67b0534e7f8c54266b83ed3227d4ce63d094df3d082d501de0ce4b609ddf64736f6c63430008130033a2646970667358221220324ead0f391e2b38d14f1dba696a78d9a6ef9ff1b85914d6ce1b225a8944e2ee64736f6c63430008130033",
			"opcodes": "PUSH1 0x80 PUSH1 0x40 MSTORE CALLVALUE DUP1 ISZERO PUSH2 0x10 JUMPI PUSH1 0x0 DUP1 REVERT JUMPDEST POP PUSH2 0x1376 DUP1 PUSH2 0x20 PUSH1 0x0 CODECOPY PUSH1 0x0 RETURN INVALID PUSH1 0x80 PUSH1 0x40 MSTORE CALLVALUE DUP1 ISZERO PUSH2 0x10 JUMPI PUSH1 0x0 DUP1 REVERT JUMPDEST POP PUSH1 0x4 CALLDATASIZE LT PUSH2 0x41 JUMPI PUSH1 0x0 CALLDATALOAD PUSH1 0xE0 SHR DUP1 PUSH4 0xF41A0B9 EQ PUSH2 0x46 JUMPI DUP1 PUSH4 0x1563700F EQ PUSH2 0x76 JUMPI DUP1 PUSH4 0x91AED508 EQ PUSH2 0x92 JUMPI JUMPDEST PUSH1 0x0 DUP1 REVERT JUMPDEST PUSH2 0x60 PUSH1 0x4 DUP1 CALLDATASIZE SUB DUP2 ADD SWAP1 PUSH2 0x5B SWAP2 SWAP1 PUSH2 0x2DA JUMP JUMPDEST PUSH2 0x9C JUMP JUMPDEST PUSH1 0x40 MLOAD PUSH2 0x6D SWAP2 SWAP1 PUSH2 0x316 JUMP JUMPDEST PUSH1 0x40 MLOAD DUP1 SWAP2 SUB SWAP1 RETURN JUMPDEST PUSH2 0x90 PUSH1 0x4 DUP1 CALLDATASIZE SUB DUP2 ADD SWAP1 PUSH2 0x8B SWAP2 SWAP1 PUSH2 0x331 JUMP JUMPDEST PUSH2 0x151 JUMP JUMPDEST STOP JUMPDEST PUSH2 0x9A PUSH2 0x1FE JUMP JUMPDEST STOP JUMPDEST PUSH1 0x0 DUP1 DUP3 DUP2 SLOAD DUP2 LT PUSH2 0xB1 JUMPI PUSH2 0xB0 PUSH2 0x371 JUMP JUMPDEST JUMPDEST SWAP1 PUSH1 0x0 MSTORE PUSH1 0x20 PUSH1 0x0 KECCAK256 ADD PUSH1 0x0 SWAP1 SLOAD SWAP1 PUSH2 0x100 EXP SWAP1 DIV PUSH20 0xFFFFFFFFFFFFFFFFFFFFFFFFFFFFFFFFFFFFFFFF AND PUSH20 0xFFFFFFFFFFFFFFFFFFFFFFFFFFFFFFFFFFFFFFFF AND PUSH4 0x2E64CEC1 PUSH1 0x40 MLOAD DUP2 PUSH4 0xFFFFFFFF AND PUSH1 0xE0 SHL DUP2 MSTORE PUSH1 0x4 ADD PUSH1 0x20 PUSH1 0x40 MLOAD DUP1 DUP4 SUB DUP2 DUP7 GAS STATICCALL ISZERO DUP1 ISZERO PUSH2 0x126 JUMPI RETURNDATASIZE PUSH1 0x0 DUP1 RETURNDATACOPY RETURNDATASIZE PUSH1 0x0 REVERT JUMPDEST POP POP POP POP PUSH1 0x40 MLOAD RETURNDATASIZE PUSH1 0x1F NOT PUSH1 0x1F DUP3 ADD AND DUP3 ADD DUP1 PUSH1 0x40 MSTORE POP DUP2 ADD SWAP1 PUSH2 0x14A SWAP2 SWAP1 PUSH2 0x3B5 JUMP JUMPDEST SWAP1 POP SWAP2 SWAP1 POP JUMP JUMPDEST PUSH1 0x0 DUP3 DUP2 SLOAD DUP2 LT PUSH2 0x165 JUMPI PUSH2 0x164 PUSH2 0x371 JUMP JUMPDEST JUMPDEST SWAP1 PUSH1 0x0 MSTORE PUSH1 0x20 PUSH1 0x0 KECCAK256 ADD PUSH1 0x0 SWAP1 SLOAD SWAP1 PUSH2 0x100 EXP SWAP1 DIV PUSH20 0xFFFFFFFFFFFFFFFFFFFFFFFFFFFFFFFFFFFFFFFF AND PUSH20 0xFFFFFFFFFFFFFFFFFFFFFFFFFFFFFFFFFFFFFFFF AND PUSH4 0x6057361D DUP3 PUSH1 0x40 MLOAD DUP3 PUSH4 0xFFFFFFFF AND PUSH1 0xE0 SHL DUP2 MSTORE PUSH1 0x4 ADD PUSH2 0x1C8 SWAP2 SWAP1 PUSH2 0x316 JUMP JUMPDEST PUSH1 0x0 PUSH1 0x40 MLOAD DUP1 DUP4 SUB DUP2 PUSH1 0x0 DUP8 DUP1 EXTCODESIZE ISZERO DUP1 ISZERO PUSH2 0x1E2 JUMPI PUSH1 0x0 DUP1 REVERT JUMPDEST POP GAS CALL ISZERO DUP1 ISZERO PUSH2 0x1F6 JUMPI RETURNDATASIZE PUSH1 0x0 DUP1 RETURNDATACOPY RETURNDATASIZE PUSH1 0x0 REVERT JUMPDEST POP POP POP POP POP POP JUMP JUMPDEST PUSH1 0x0 PUSH1 0x40 MLOAD PUSH2 0x20C SWAP1 PUSH2 0x291 JUMP JUMPDEST PUSH1 0x40 MLOAD DUP1 SWAP2 SUB SWAP1 PUSH1 0x0 CREATE DUP1 ISZERO DUP1 ISZERO PUSH2 0x228 JUMPI RETURNDATASIZE PUSH1 0x0 DUP1 RETURNDATACOPY RETURNDATASIZE PUSH1 0x0 REVERT JUMPDEST POP SWAP1 POP PUSH1 0x0 DUP2 SWAP1 DUP1 PUSH1 0x1 DUP2 SLOAD ADD DUP1 DUP3 SSTORE DUP1 SWAP2 POP POP PUSH1 0x1 SWAP1 SUB SWAP1 PUSH1 0x0 MSTORE PUSH1 0x20 PUSH1 0x0 KECCAK256 ADD PUSH1 0x0 SWAP1 SWAP2 SWAP1 SWAP2 SWAP1 SWAP2 PUSH2 0x100 EXP DUP2 SLOAD DUP2 PUSH20 0xFFFFFFFFFFFFFFFFFFFFFFFFFFFFFFFFFFFFFFFF MUL NOT AND SWAP1 DUP4 PUSH20 0xFFFFFFFFFFFFFFFFFFFFFFFFFFFFFFFFFFFFFFFF AND MUL OR SWAP1 SSTORE POP POP JUMP JUMPDEST PUSH2 0xF5E DUP1 PUSH3 0x3E3 DUP4 CODECOPY ADD SWAP1 JUMP JUMPDEST PUSH1 0x0 DUP1 REVERT JUMPDEST PUSH1 0x0 DUP2 SWAP1 POP SWAP2 SWAP1 POP JUMP JUMPDEST PUSH2 0x2B7 DUP2 PUSH2 0x2A4 JUMP JUMPDEST DUP2 EQ PUSH2 0x2C2 JUMPI PUSH1 0x0 DUP1 REVERT JUMPDEST POP JUMP JUMPDEST PUSH1 0x0 DUP2 CALLDATALOAD SWAP1 POP PUSH2 0x2D4 DUP2 PUSH2 0x2AE JUMP JUMPDEST SWAP3 SWAP2 POP POP JUMP JUMPDEST PUSH1 0x0 PUSH1 0x20 DUP3 DUP5 SUB SLT ISZERO PUSH2 0x2F0 JUMPI PUSH2 0x2EF PUSH2 0x29F JUMP JUMPDEST JUMPDEST PUSH1 0x0 PUSH2 0x2FE DUP5 DUP3 DUP6 ADD PUSH2 0x2C5 JUMP JUMPDEST SWAP2 POP POP SWAP3 SWAP2 POP POP JUMP JUMPDEST PUSH2 0x310 DUP2 PUSH2 0x2A4 JUMP JUMPDEST DUP3 MSTORE POP POP JUMP JUMPDEST PUSH1 0x0 PUSH1 0x20 DUP3 ADD SWAP1 POP PUSH2 0x32B PUSH1 0x0 DUP4 ADD DUP5 PUSH2 0x307 JUMP JUMPDEST SWAP3 SWAP2 POP POP JUMP JUMPDEST PUSH1 0x0 DUP1 PUSH1 0x40 DUP4 DUP6 SUB SLT ISZERO PUSH2 0x348 JUMPI PUSH2 0x347 PUSH2 0x29F JUMP JUMPDEST JUMPDEST PUSH1 0x0 PUSH2 0x356 DUP6 DUP3 DUP7 ADD PUSH2 0x2C5 JUMP JUMPDEST SWAP3 POP POP PUSH1 0x20 PUSH2 0x367 DUP6 DUP3 DUP7 ADD PUSH2 0x2C5 JUMP JUMPDEST SWAP2 POP POP SWAP3 POP SWAP3 SWAP1 POP JUMP JUMPDEST PUSH32 0x4E487B7100000000000000000000000000000000000000000000000000000000 PUSH1 0x0 MSTORE PUSH1 0x32 PUSH1 0x4 MSTORE PUSH1 0x24 PUSH1 0x0 REVERT JUMPDEST PUSH1 0x0 DUP2 MLOAD SWAP1 POP PUSH2 0x3AF DUP2 PUSH2 0x2AE JUMP JUMPDEST SWAP3 SWAP2 POP POP JUMP JUMPDEST PUSH1 0x0 PUSH1 0x20 DUP3 DUP5 SUB SLT ISZERO PUSH2 0x3CB JUMPI PUSH2 0x3CA PUSH2 0x29F JUMP JUMPDEST JUMPDEST PUSH1 0x0 PUSH2 0x3D9 DUP5 DUP3 DUP6 ADD PUSH2 0x3A0 JUMP JUMPDEST SWAP2 POP POP SWAP3 SWAP2 POP POP JUMP INVALID PUSH1 0x80 PUSH1 0x40 MSTORE PUSH1 0x40 MLOAD DUP1 PUSH1 0x40 ADD PUSH1 0x40 MSTORE DUP1 PUSH1 0x1 DUP2 MSTORE PUSH1 0x20 ADD PUSH1 0x40 MLOAD DUP1 PUSH1 0x40 ADD PUSH1 0x40 MSTORE DUP1 PUSH1 0x4 DUP2 MSTORE PUSH1 0x20 ADD PUSH32 0x6A61636B00000000000000000000000000000000000000000000000000000000 DUP2 MSTORE POP DUP2 MSTORE POP PUSH1 0x2 PUSH1 0x0 DUP3 ADD MLOAD DUP2 PUSH1 0x0 ADD SSTORE PUSH1 0x20 DUP3 ADD MLOAD DUP2 PUSH1 0x1 ADD SWAP1 DUP2 PUSH3 0x72 SWAP2 SWAP1 PUSH3 0x303 JUMP JUMPDEST POP POP POP CALLVALUE DUP1 ISZERO PUSH3 0x82 JUMPI PUSH1 0x0 DUP1 REVERT JUMPDEST POP PUSH3 0x3EA JUMP JUMPDEST PUSH1 0x0 DUP2 MLOAD SWAP1 POP SWAP2 SWAP1 POP JUMP JUMPDEST PUSH32 0x4E487B7100000000000000000000000000000000000000000000000000000000 PUSH1 0x0 MSTORE PUSH1 0x41 PUSH1 0x4 MSTORE PUSH1 0x24 PUSH1 0x0 REVERT JUMPDEST PUSH32 0x4E487B7100000000000000000000000000000000000000000000000000000000 PUSH1 0x0 MSTORE PUSH1 0x22 PUSH1 0x4 MSTORE PUSH1 0x24 PUSH1 0x0 REVERT JUMPDEST PUSH1 0x0 PUSH1 0x2 DUP3 DIV SWAP1 POP PUSH1 0x1 DUP3 AND DUP1 PUSH3 0x10B JUMPI PUSH1 0x7F DUP3 AND SWAP2 POP JUMPDEST PUSH1 0x20 DUP3 LT DUP2 SUB PUSH3 0x121 JUMPI PUSH3 0x120 PUSH3 0xC3 JUMP JUMPDEST JUMPDEST POP SWAP2 SWAP1 POP JUMP JUMPDEST PUSH1 0x0 DUP2 SWAP1 POP DUP2 PUSH1 0x0 MSTORE PUSH1 0x20 PUSH1 0x0 KECCAK256 SWAP1 POP SWAP2 SWAP1 POP JUMP JUMPDEST PUSH1 0x0 PUSH1 0x20 PUSH1 0x1F DUP4 ADD DIV SWAP1 POP SWAP2 SWAP1 POP JUMP JUMPDEST PUSH1 0x0 DUP3 DUP3 SHL SWAP1 POP SWAP3 SWAP2 POP POP JUMP JUMPDEST PUSH1 0x0 PUSH1 0x8 DUP4 MUL PUSH3 0x18B PUSH32 0xFFFFFFFFFFFFFFFFFFFFFFFFFFFFFFFFFFFFFFFFFFFFFFFFFFFFFFFFFFFFFFFF DUP3 PUSH3 0x14C JUMP JUMPDEST PUSH3 0x197 DUP7 DUP4 PUSH3 0x14C JUMP JUMPDEST SWAP6 POP DUP1 NOT DUP5 AND SWAP4 POP DUP1 DUP7 AND DUP5 OR SWAP3 POP POP POP SWAP4 SWAP3 POP POP POP JUMP JUMPDEST PUSH1 0x0 DUP2 SWAP1 POP SWAP2 SWAP1 POP JUMP JUMPDEST PUSH1 0x0 DUP2 SWAP1 POP SWAP2 SWAP1 POP JUMP JUMPDEST PUSH1 0x0 PUSH3 0x1E4 PUSH3 0x1DE PUSH3 0x1D8 DUP5 PUSH3 0x1AF JUMP JUMPDEST PUSH3 0x1B9 JUMP JUMPDEST PUSH3 0x1AF JUMP JUMPDEST SWAP1 POP SWAP2 SWAP1 POP JUMP JUMPDEST PUSH1 0x0 DUP2 SWAP1 POP SWAP2 SWAP1 POP JUMP JUMPDEST PUSH3 0x200 DUP4 PUSH3 0x1C3 JUMP JUMPDEST PUSH3 0x218 PUSH3 0x20F DUP3 PUSH3 0x1EB JUMP JUMPDEST DUP5 DUP5 SLOAD PUSH3 0x159 JUMP JUMPDEST DUP3 SSTORE POP POP POP POP JUMP JUMPDEST PUSH1 0x0 SWAP1 JUMP JUMPDEST PUSH3 0x22F PUSH3 0x220 JUMP JUMPDEST PUSH3 0x23C DUP2 DUP5 DUP5 PUSH3 0x1F5 JUMP JUMPDEST POP POP POP JUMP JUMPDEST JUMPDEST DUP2 DUP2 LT ISZERO PUSH3 0x264 JUMPI PUSH3 0x258 PUSH1 0x0 DUP3 PUSH3 0x225 JUMP JUMPDEST PUSH1 0x1 DUP2 ADD SWAP1 POP PUSH3 0x242 JUMP JUMPDEST POP POP JUMP JUMPDEST PUSH1 0x1F DUP3 GT ISZERO PUSH3 0x2B3 JUMPI PUSH3 0x27D DUP2 PUSH3 0x127 JUMP JUMPDEST PUSH3 0x288 DUP5 PUSH3 0x13C JUMP JUMPDEST DUP2 ADD PUSH1 0x20 DUP6 LT ISZERO PUSH3 0x298 JUMPI DUP2 SWAP1 POP JUMPDEST PUSH3 0x2B0 PUSH3 0x2A7 DUP6 PUSH3 0x13C JUMP JUMPDEST DUP4 ADD DUP3 PUSH3 0x241 JUMP JUMPDEST POP POP JUMPDEST POP POP POP JUMP JUMPDEST PUSH1 0x0 DUP3 DUP3 SHR SWAP1 POP SWAP3 SWAP2 POP POP JUMP JUMPDEST PUSH1 0x0 PUSH3 0x2D8 PUSH1 0x0 NOT DUP5 PUSH1 0x8 MUL PUSH3 0x2B8 JUMP JUMPDEST NOT DUP1 DUP4 AND SWAP2 POP POP SWAP3 SWAP2 POP POP JUMP JUMPDEST PUSH1 0x0 PUSH3 0x2F3 DUP4 DUP4 PUSH3 0x2C5 JUMP JUMPDEST SWAP2 POP DUP3 PUSH1 0x2 MUL DUP3 OR SWAP1 POP SWAP3 SWAP2 POP POP JUMP JUMPDEST PUSH3 0x30E DUP3 PUSH3 0x89 JUMP JUMPDEST PUSH8 0xFFFFFFFFFFFFFFFF DUP2 GT ISZERO PUSH3 0x32A JUMPI PUSH3 0x329 PUSH3 0x94 JUMP JUMPDEST JUMPDEST PUSH3 0x336 DUP3 SLOAD PUSH3 0xF2 JUMP JUMPDEST PUSH3 0x343 DUP3 DUP3 DUP6 PUSH3 0x268 JUMP JUMPDEST PUSH1 0x0 PUSH1 0x20 SWAP1 POP PUSH1 0x1F DUP4 GT PUSH1 0x1 DUP2 EQ PUSH3 0x37B JUMPI PUSH1 0x0 DUP5 ISZERO PUSH3 0x366 JUMPI DUP3 DUP8 ADD MLOAD SWAP1 POP JUMPDEST PUSH3 0x372 DUP6 DUP3 PUSH3 0x2E5 JUMP JUMPDEST DUP7 SSTORE POP PUSH3 0x3E2 JUMP JUMPDEST PUSH1 0x1F NOT DUP5 AND PUSH3 0x38B DUP7 PUSH3 0x127 JUMP JUMPDEST PUSH1 0x0 JUMPDEST DUP3 DUP2 LT ISZERO PUSH3 0x3B5 JUMPI DUP5 DUP10 ADD MLOAD DUP3 SSTORE PUSH1 0x1 DUP3 ADD SWAP2 POP PUSH1 0x20 DUP6 ADD SWAP5 POP PUSH1 0x20 DUP2 ADD SWAP1 POP PUSH3 0x38E JUMP JUMPDEST DUP7 DUP4 LT ISZERO PUSH3 0x3D5 JUMPI DUP5 DUP10 ADD MLOAD PUSH3 0x3D1 PUSH1 0x1F DUP10 AND DUP3 PUSH3 0x2C5 JUMP JUMPDEST DUP4 SSTORE POP JUMPDEST PUSH1 0x1 PUSH1 0x2 DUP9 MUL ADD DUP9 SSTORE POP POP POP JUMPDEST POP POP POP POP POP POP JUMP JUMPDEST PUSH2 0xB64 DUP1 PUSH3 0x3FA PUSH1 0x0 CODECOPY PUSH1 0x0 RETURN INVALID PUSH1 0x80 PUSH1 0x40 MSTORE CALLVALUE DUP1 ISZERO PUSH2 0x10 JUMPI PUSH1 0x0 DUP1 REVERT JUMPDEST POP PUSH1 0x4 CALLDATASIZE LT PUSH2 0x9E JUMPI PUSH1 0x0 CALLDATALOAD PUSH1 0xE0 SHR DUP1 PUSH4 0x6D83BC57 GT PUSH2 0x66 JUMPI DUP1 PUSH4 0x6D83BC57 EQ PUSH2 0x15D JUMPI DUP1 PUSH4 0x6F760F41 EQ PUSH2 0x17B JUMPI DUP1 PUSH4 0x8BAB8DD5 EQ PUSH2 0x197 JUMPI DUP1 PUSH4 0xB2D4EFCD EQ PUSH2 0x1C7 JUMPI DUP1 PUSH4 0xE6316A4F EQ PUSH2 0x1E6 JUMPI PUSH2 0x9E JUMP JUMPDEST DUP1 PUSH4 0xBC09DE7 EQ PUSH2 0xA3 JUMPI DUP1 PUSH4 0x2E64CEC1 EQ PUSH2 0xD3 JUMPI DUP1 PUSH4 0x5786E1E3 EQ PUSH2 0xF1 JUMPI DUP1 PUSH4 0x57E83311 EQ PUSH2 0x122 JUMPI DUP1 PUSH4 0x6057361D EQ PUSH2 0x141 JUMPI JUMPDEST PUSH1 0x0 DUP1 REVERT JUMPDEST PUSH2 0xBD PUSH1 0x4 DUP1 CALLDATASIZE SUB DUP2 ADD SWAP1 PUSH2 0xB8 SWAP2 SWAP1 PUSH2 0x50C JUMP JUMPDEST PUSH2 0x202 JUMP JUMPDEST PUSH1 0x40 MLOAD PUSH2 0xCA SWAP2 SWAP1 PUSH2 0x548 JUMP JUMPDEST PUSH1 0x40 MLOAD DUP1 SWAP2 SUB SWAP1 RETURN JUMPDEST PUSH2 0xDB PUSH2 0x226 JUMP JUMPDEST PUSH1 0x40 MLOAD PUSH2 0xE8 SWAP2 SWAP1 PUSH2 0x548 JUMP JUMPDEST PUSH1 0x40 MLOAD DUP1 SWAP2 SUB SWAP1 RETURN JUMPDEST PUSH2 0x10B PUSH1 0x4 DUP1 CALLDATASIZE SUB DUP2 ADD SWAP1 PUSH2 0x106 SWAP2 SWAP1 PUSH2 0x50C JUMP JUMPDEST PUSH2 0x22F JUMP JUMPDEST PUSH1 0x40 MLOAD PUSH2 0x119 SWAP3 SWAP2 SWAP1 PUSH2 0x5F3 JUMP JUMPDEST PUSH1 0x40 MLOAD DUP1 SWAP2 SUB SWAP1 RETURN JUMPDEST PUSH2 0x12A PUSH2 0x2EB JUMP JUMPDEST PUSH1 0x40 MLOAD PUSH2 0x138 SWAP3 SWAP2 SWAP1 PUSH2 0x5F3 JUMP JUMPDEST PUSH1 0x40 MLOAD DUP1 SWAP2 SUB SWAP1 RETURN JUMPDEST PUSH2 0x15B PUSH1 0x4 DUP1 CALLDATASIZE SUB DUP2 ADD SWAP1 PUSH2 0x156 SWAP2 SWAP1 PUSH2 0x50C JUMP JUMPDEST PUSH2 0x385 JUMP JUMPDEST STOP JUMPDEST PUSH2 0x165 PUSH2 0x38F JUMP JUMPDEST PUSH1 0x40 MLOAD PUSH2 0x172 SWAP2 SWAP1 PUSH2 0x548 JUMP JUMPDEST PUSH1 0x40 MLOAD DUP1 SWAP2 SUB SWAP1 RETURN JUMPDEST PUSH2 0x195 PUSH1 0x4 DUP1 CALLDATASIZE SUB DUP2 ADD SWAP1 PUSH2 0x190 SWAP2 SWAP1 PUSH2 0x758 JUMP JUMPDEST PUSH2 0x395 JUMP JUMPDEST STOP JUMPDEST PUSH2 0x1B1 PUSH1 0x4 DUP1 CALLDATASIZE SUB DUP2 ADD SWAP1 PUSH2 0x1AC SWAP2 SWAP1 PUSH2 0x7B4 JUMP JUMPDEST PUSH2 0x3F6 JUMP JUMPDEST PUSH1 0x40 MLOAD PUSH2 0x1BE SWAP2 SWAP1 PUSH2 0x548 JUMP JUMPDEST PUSH1 0x40 MLOAD DUP1 SWAP2 SUB SWAP1 RETURN JUMPDEST PUSH2 0x1CF PUSH2 0x424 JUMP JUMPDEST PUSH1 0x40 MLOAD PUSH2 0x1DD SWAP3 SWAP2 SWAP1 PUSH2 0x5F3 JUMP JUMPDEST PUSH1 0x40 MLOAD DUP1 SWAP2 SUB SWAP1 RETURN JUMPDEST PUSH2 0x200 PUSH1 0x4 DUP1 CALLDATASIZE SUB DUP2 ADD SWAP1 PUSH2 0x1FB SWAP2 SWAP1 PUSH2 0x758 JUMP JUMPDEST PUSH2 0x4BE JUMP JUMPDEST STOP JUMPDEST PUSH1 0x1 DUP2 DUP2 SLOAD DUP2 LT PUSH2 0x212 JUMPI PUSH1 0x0 DUP1 REVERT JUMPDEST SWAP1 PUSH1 0x0 MSTORE PUSH1 0x20 PUSH1 0x0 KECCAK256 ADD PUSH1 0x0 SWAP2 POP SWAP1 POP SLOAD DUP2 JUMP JUMPDEST PUSH1 0x0 DUP1 SLOAD SWAP1 POP SWAP1 JUMP JUMPDEST PUSH1 0x6 DUP2 DUP2 SLOAD DUP2 LT PUSH2 0x23F JUMPI PUSH1 0x0 DUP1 REVERT JUMPDEST SWAP1 PUSH1 0x0 MSTORE PUSH1 0x20 PUSH1 0x0 KECCAK256 SWAP1 PUSH1 0x2 MUL ADD PUSH1 0x0 SWAP2 POP SWAP1 POP DUP1 PUSH1 0x0 ADD SLOAD SWAP1 DUP1 PUSH1 0x1 ADD DUP1 SLOAD PUSH2 0x268 SWAP1 PUSH2 0x82C JUMP JUMPDEST DUP1 PUSH1 0x1F ADD PUSH1 0x20 DUP1 SWAP2 DIV MUL PUSH1 0x20 ADD PUSH1 0x40 MLOAD SWAP1 DUP2 ADD PUSH1 0x40 MSTORE DUP1 SWAP3 SWAP2 SWAP1 DUP2 DUP2 MSTORE PUSH1 0x20 ADD DUP3 DUP1 SLOAD PUSH2 0x294 SWAP1 PUSH2 0x82C JUMP JUMPDEST DUP1 ISZERO PUSH2 0x2E1 JUMPI DUP1 PUSH1 0x1F LT PUSH2 0x2B6 JUMPI PUSH2 0x100 DUP1 DUP4 SLOAD DIV MUL DUP4 MSTORE SWAP2 PUSH1 0x20 ADD SWAP2 PUSH2 0x2E1 JUMP JUMPDEST DUP3 ADD SWAP2 SWAP1 PUSH1 0x0 MSTORE PUSH1 0x20 PUSH1 0x0 KECCAK256 SWAP1 JUMPDEST DUP2 SLOAD DUP2 MSTORE SWAP1 PUSH1 0x1 ADD SWAP1 PUSH1 0x20 ADD DUP1 DUP4 GT PUSH2 0x2C4 JUMPI DUP3 SWAP1 SUB PUSH1 0x1F AND DUP3 ADD SWAP2 JUMPDEST POP POP POP POP POP SWAP1 POP DUP3 JUMP JUMPDEST PUSH1 0x4 DUP1 PUSH1 0x0 ADD SLOAD SWAP1 DUP1 PUSH1 0x1 ADD DUP1 SLOAD PUSH2 0x302 SWAP1 PUSH2 0x82C JUMP JUMPDEST DUP1 PUSH1 0x1F ADD PUSH1 0x20 DUP1 SWAP2 DIV MUL PUSH1 0x20 ADD PUSH1 0x40 MLOAD SWAP1 DUP2 ADD PUSH1 0x40 MSTORE DUP1 SWAP3 SWAP2 SWAP1 DUP2 DUP2 MSTORE PUSH1 0x20 ADD DUP3 DUP1 SLOAD PUSH2 0x32E SWAP1 PUSH2 0x82C JUMP JUMPDEST DUP1 ISZERO PUSH2 0x37B JUMPI DUP1 PUSH1 0x1F LT PUSH2 0x350 JUMPI PUSH2 0x100 DUP1 DUP4 SLOAD DIV MUL DUP4 MSTORE SWAP2 PUSH1 0x20 ADD SWAP2 PUSH2 0x37B JUMP JUMPDEST DUP3 ADD SWAP2 SWAP1 PUSH1 0x0 MSTORE PUSH1 0x20 PUSH1 0x0 KECCAK256 SWAP1 JUMPDEST DUP2 SLOAD DUP2 MSTORE SWAP1 PUSH1 0x1 ADD SWAP1 PUSH1 0x20 ADD DUP1 DUP4 GT PUSH2 0x35E JUMPI DUP3 SWAP1 SUB PUSH1 0x1F AND DUP3 ADD SWAP2 JUMPDEST POP POP POP POP POP SWAP1 POP DUP3 JUMP JUMPDEST DUP1 PUSH1 0x0 DUP2 SWAP1 SSTORE POP POP JUMP JUMPDEST PUSH1 0x0 SLOAD DUP2 JUMP JUMPDEST PUSH1 0x40 MLOAD DUP1 PUSH1 0x40 ADD PUSH1 0x40 MSTORE DUP1 DUP3 DUP2 MSTORE PUSH1 0x20 ADD DUP4 DUP2 MSTORE POP PUSH1 0x4 PUSH1 0x0 DUP3 ADD MLOAD DUP2 PUSH1 0x0 ADD SSTORE PUSH1 0x20 DUP3 ADD MLOAD DUP2 PUSH1 0x1 ADD SWAP1 DUP2 PUSH2 0x3CB SWAP2 SWAP1 PUSH2 0xA09 JUMP JUMPDEST POP SWAP1 POP POP DUP1 PUSH1 0x7 DUP4 PUSH1 0x40 MLOAD PUSH2 0x3E0 SWAP2 SWAP1 PUSH2 0xB17 JUMP JUMPDEST SWAP1 DUP2 MSTORE PUSH1 0x20 ADD PUSH1 0x40 MLOAD DUP1 SWAP2 SUB SWAP1 KECCAK256 DUP2 SWAP1 SSTORE POP POP POP JUMP JUMPDEST PUSH1 0x7 DUP2 DUP1 MLOAD PUSH1 0x20 DUP2 ADD DUP3 ADD DUP1 MLOAD DUP5 DUP3 MSTORE PUSH1 0x20 DUP4 ADD PUSH1 0x20 DUP6 ADD KECCAK256 DUP2 DUP4 MSTORE DUP1 SWAP6 POP POP POP POP POP POP PUSH1 0x0 SWAP2 POP SWAP1 POP SLOAD DUP2 JUMP JUMPDEST PUSH1 0x2 DUP1 PUSH1 0x0 ADD SLOAD SWAP1 DUP1 PUSH1 0x1 ADD DUP1 SLOAD PUSH2 0x43B SWAP1 PUSH2 0x82C JUMP JUMPDEST DUP1 PUSH1 0x1F ADD PUSH1 0x20 DUP1 SWAP2 DIV MUL PUSH1 0x20 ADD PUSH1 0x40 MLOAD SWAP1 DUP2 ADD PUSH1 0x40 MSTORE DUP1 SWAP3 SWAP2 SWAP1 DUP2 DUP2 MSTORE PUSH1 0x20 ADD DUP3 DUP1 SLOAD PUSH2 0x467 SWAP1 PUSH2 0x82C JUMP JUMPDEST DUP1 ISZERO PUSH2 0x4B4 JUMPI DUP1 PUSH1 0x1F LT PUSH2 0x489 JUMPI PUSH2 0x100 DUP1 DUP4 SLOAD DIV MUL DUP4 MSTORE SWAP2 PUSH1 0x20 ADD SWAP2 PUSH2 0x4B4 JUMP JUMPDEST DUP3 ADD SWAP2 SWAP1 PUSH1 0x0 MSTORE PUSH1 0x20 PUSH1 0x0 KECCAK256 SWAP1 JUMPDEST DUP2 SLOAD DUP2 MSTORE SWAP1 PUSH1 0x1 ADD SWAP1 PUSH1 0x20 ADD DUP1 DUP4 GT PUSH2 0x497 JUMPI DUP3 SWAP1 SUB PUSH1 0x1F AND DUP3 ADD SWAP2 JUMPDEST POP POP POP POP POP SWAP1 POP DUP3 JUMP JUMPDEST POP POP JUMP JUMPDEST PUSH1 0x0 PUSH1 0x40 MLOAD SWAP1 POP SWAP1 JUMP JUMPDEST PUSH1 0x0 DUP1 REVERT JUMPDEST PUSH1 0x0 DUP1 REVERT JUMPDEST PUSH1 0x0 DUP2 SWAP1 POP SWAP2 SWAP1 POP JUMP JUMPDEST PUSH2 0x4E9 DUP2 PUSH2 0x4D6 JUMP JUMPDEST DUP2 EQ PUSH2 0x4F4 JUMPI PUSH1 0x0 DUP1 REVERT JUMPDEST POP JUMP JUMPDEST PUSH1 0x0 DUP2 CALLDATALOAD SWAP1 POP PUSH2 0x506 DUP2 PUSH2 0x4E0 JUMP JUMPDEST SWAP3 SWAP2 POP POP JUMP JUMPDEST PUSH1 0x0 PUSH1 0x20 DUP3 DUP5 SUB SLT ISZERO PUSH2 0x522 JUMPI PUSH2 0x521 PUSH2 0x4CC JUMP JUMPDEST JUMPDEST PUSH1 0x0 PUSH2 0x530 DUP5 DUP3 DUP6 ADD PUSH2 0x4F7 JUMP JUMPDEST SWAP2 POP POP SWAP3 SWAP2 POP POP JUMP JUMPDEST PUSH2 0x542 DUP2 PUSH2 0x4D6 JUMP JUMPDEST DUP3 MSTORE POP POP JUMP JUMPDEST PUSH1 0x0 PUSH1 0x20 DUP3 ADD SWAP1 POP PUSH2 0x55D PUSH1 0x0 DUP4 ADD DUP5 PUSH2 0x539 JUMP JUMPDEST SWAP3 SWAP2 POP POP JUMP JUMPDEST PUSH1 0x0 DUP2 MLOAD SWAP1 POP SWAP2 SWAP1 POP JUMP JUMPDEST PUSH1 0x0 DUP3 DUP3 MSTORE PUSH1 0x20 DUP3 ADD SWAP1 POP SWAP3 SWAP2 POP POP JUMP JUMPDEST PUSH1 0x0 JUMPDEST DUP4 DUP2 LT ISZERO PUSH2 0x59D JUMPI DUP1 DUP3 ADD MLOAD DUP2 DUP5 ADD MSTORE PUSH1 0x20 DUP2 ADD SWAP1 POP PUSH2 0x582 JUMP JUMPDEST PUSH1 0x0 DUP5 DUP5 ADD MSTORE POP POP POP POP JUMP JUMPDEST PUSH1 0x0 PUSH1 0x1F NOT PUSH1 0x1F DUP4 ADD AND SWAP1 POP SWAP2 SWAP1 POP JUMP JUMPDEST PUSH1 0x0 PUSH2 0x5C5 DUP3 PUSH2 0x563 JUMP JUMPDEST PUSH2 0x5CF DUP2 DUP6 PUSH2 0x56E JUMP JUMPDEST SWAP4 POP PUSH2 0x5DF DUP2 DUP6 PUSH1 0x20 DUP7 ADD PUSH2 0x57F JUMP JUMPDEST PUSH2 0x5E8 DUP2 PUSH2 0x5A9 JUMP JUMPDEST DUP5 ADD SWAP2 POP POP SWAP3 SWAP2 POP POP JUMP JUMPDEST PUSH1 0x0 PUSH1 0x40 DUP3 ADD SWAP1 POP PUSH2 0x608 PUSH1 0x0 DUP4 ADD DUP6 PUSH2 0x539 JUMP JUMPDEST DUP2 DUP2 SUB PUSH1 0x20 DUP4 ADD MSTORE PUSH2 0x61A DUP2 DUP5 PUSH2 0x5BA JUMP JUMPDEST SWAP1 POP SWAP4 SWAP3 POP POP POP JUMP JUMPDEST PUSH1 0x0 DUP1 REVERT JUMPDEST PUSH1 0x0 DUP1 REVERT JUMPDEST PUSH32 0x4E487B7100000000000000000000000000000000000000000000000000000000 PUSH1 0x0 MSTORE PUSH1 0x41 PUSH1 0x4 MSTORE PUSH1 0x24 PUSH1 0x0 REVERT JUMPDEST PUSH2 0x665 DUP3 PUSH2 0x5A9 JUMP JUMPDEST DUP2 ADD DUP2 DUP2 LT PUSH8 0xFFFFFFFFFFFFFFFF DUP3 GT OR ISZERO PUSH2 0x684 JUMPI PUSH2 0x683 PUSH2 0x62D JUMP JUMPDEST JUMPDEST DUP1 PUSH1 0x40 MSTORE POP POP POP JUMP JUMPDEST PUSH1 0x0 PUSH2 0x697 PUSH2 0x4C2 JUMP JUMPDEST SWAP1 POP PUSH2 0x6A3 DUP3 DUP3 PUSH2 0x65C JUMP JUMPDEST SWAP2 SWAP1 POP JUMP JUMPDEST PUSH1 0x0 PUSH8 0xFFFFFFFFFFFFFFFF DUP3 GT ISZERO PUSH2 0x6C3 JUMPI PUSH2 0x6C2 PUSH2 0x62D JUMP JUMPDEST JUMPDEST PUSH2 0x6CC DUP3 PUSH2 0x5A9 JUMP JUMPDEST SWAP1 POP PUSH1 0x20 DUP2 ADD SWAP1 POP SWAP2 SWAP1 POP JUMP JUMPDEST DUP3 DUP2 DUP4 CALLDATACOPY PUSH1 0x0 DUP4 DUP4 ADD MSTORE POP POP POP JUMP JUMPDEST PUSH1 0x0 PUSH2 0x6FB PUSH2 0x6F6 DUP5 PUSH2 0x6A8 JUMP JUMPDEST PUSH2 0x68D JUMP JUMPDEST SWAP1 POP DUP3 DUP2 MSTORE PUSH1 0x20 DUP2 ADD DUP5 DUP5 DUP5 ADD GT ISZERO PUSH2 0x717 JUMPI PUSH2 0x716 PUSH2 0x628 JUMP JUMPDEST JUMPDEST PUSH2 0x722 DUP5 DUP3 DUP6 PUSH2 0x6D9 JUMP JUMPDEST POP SWAP4 SWAP3 POP POP POP JUMP JUMPDEST PUSH1 0x0 DUP3 PUSH1 0x1F DUP4 ADD SLT PUSH2 0x73F JUMPI PUSH2 0x73E PUSH2 0x623 JUMP JUMPDEST JUMPDEST DUP2 CALLDATALOAD PUSH2 0x74F DUP5 DUP3 PUSH1 0x20 DUP7 ADD PUSH2 0x6E8 JUMP JUMPDEST SWAP2 POP POP SWAP3 SWAP2 POP POP JUMP JUMPDEST PUSH1 0x0 DUP1 PUSH1 0x40 DUP4 DUP6 SUB SLT ISZERO PUSH2 0x76F JUMPI PUSH2 0x76E PUSH2 0x4CC JUMP JUMPDEST JUMPDEST PUSH1 0x0 DUP4 ADD CALLDATALOAD PUSH8 0xFFFFFFFFFFFFFFFF DUP2 GT ISZERO PUSH2 0x78D JUMPI PUSH2 0x78C PUSH2 0x4D1 JUMP JUMPDEST JUMPDEST PUSH2 0x799 DUP6 DUP3 DUP7 ADD PUSH2 0x72A JUMP JUMPDEST SWAP3 POP POP PUSH1 0x20 PUSH2 0x7AA DUP6 DUP3 DUP7 ADD PUSH2 0x4F7 JUMP JUMPDEST SWAP2 POP POP SWAP3 POP SWAP3 SWAP1 POP JUMP JUMPDEST PUSH1 0x0 PUSH1 0x20 DUP3 DUP5 SUB SLT ISZERO PUSH2 0x7CA JUMPI PUSH2 0x7C9 PUSH2 0x4CC JUMP JUMPDEST JUMPDEST PUSH1 0x0 DUP3 ADD CALLDATALOAD PUSH8 0xFFFFFFFFFFFFFFFF DUP2 GT ISZERO PUSH2 0x7E8 JUMPI PUSH2 0x7E7 PUSH2 0x4D1 JUMP JUMPDEST JUMPDEST PUSH2 0x7F4 DUP5 DUP3 DUP6 ADD PUSH2 0x72A JUMP JUMPDEST SWAP2 POP POP SWAP3 SWAP2 POP POP JUMP JUMPDEST PUSH32 0x4E487B7100000000000000000000000000000000000000000000000000000000 PUSH1 0x0 MSTORE PUSH1 0x22 PUSH1 0x4 MSTORE PUSH1 0x24 PUSH1 0x0 REVERT JUMPDEST PUSH1 0x0 PUSH1 0x2 DUP3 DIV SWAP1 POP PUSH1 0x1 DUP3 AND DUP1 PUSH2 0x844 JUMPI PUSH1 0x7F DUP3 AND SWAP2 POP JUMPDEST PUSH1 0x20 DUP3 LT DUP2 SUB PUSH2 0x857 JUMPI PUSH2 0x856 PUSH2 0x7FD JUMP JUMPDEST JUMPDEST POP SWAP2 SWAP1 POP JUMP JUMPDEST PUSH1 0x0 DUP2 SWAP1 POP DUP2 PUSH1 0x0 MSTORE PUSH1 0x20 PUSH1 0x0 KECCAK256 SWAP1 POP SWAP2 SWAP1 POP JUMP JUMPDEST PUSH1 0x0 PUSH1 0x20 PUSH1 0x1F DUP4 ADD DIV SWAP1 POP SWAP2 SWAP1 POP JUMP JUMPDEST PUSH1 0x0 DUP3 DUP3 SHL SWAP1 POP SWAP3 SWAP2 POP POP JUMP JUMPDEST PUSH1 0x0 PUSH1 0x8 DUP4 MUL PUSH2 0x8BF PUSH32 0xFFFFFFFFFFFFFFFFFFFFFFFFFFFFFFFFFFFFFFFFFFFFFFFFFFFFFFFFFFFFFFFF DUP3 PUSH2 0x882 JUMP JUMPDEST PUSH2 0x8C9 DUP7 DUP4 PUSH2 0x882 JUMP JUMPDEST SWAP6 POP DUP1 NOT DUP5 AND SWAP4 POP DUP1 DUP7 AND DUP5 OR SWAP3 POP POP POP SWAP4 SWAP3 POP POP POP JUMP JUMPDEST PUSH1 0x0 DUP2 SWAP1 POP SWAP2 SWAP1 POP JUMP JUMPDEST PUSH1 0x0 PUSH2 0x906 PUSH2 0x901 PUSH2 0x8FC DUP5 PUSH2 0x4D6 JUMP JUMPDEST PUSH2 0x8E1 JUMP JUMPDEST PUSH2 0x4D6 JUMP JUMPDEST SWAP1 POP SWAP2 SWAP1 POP JUMP JUMPDEST PUSH1 0x0 DUP2 SWAP1 POP SWAP2 SWAP1 POP JUMP JUMPDEST PUSH2 0x920 DUP4 PUSH2 0x8EB JUMP JUMPDEST PUSH2 0x934 PUSH2 0x92C DUP3 PUSH2 0x90D JUMP JUMPDEST DUP5 DUP5 SLOAD PUSH2 0x88F JUMP JUMPDEST DUP3 SSTORE POP POP POP POP JUMP JUMPDEST PUSH1 0x0 SWAP1 JUMP JUMPDEST PUSH2 0x949 PUSH2 0x93C JUMP JUMPDEST PUSH2 0x954 DUP2 DUP5 DUP5 PUSH2 0x917 JUMP JUMPDEST POP POP POP JUMP JUMPDEST JUMPDEST DUP2 DUP2 LT ISZERO PUSH2 0x978 JUMPI PUSH2 0x96D PUSH1 0x0 DUP3 PUSH2 0x941 JUMP JUMPDEST PUSH1 0x1 DUP2 ADD SWAP1 POP PUSH2 0x95A JUMP JUMPDEST POP POP JUMP JUMPDEST PUSH1 0x1F DUP3 GT ISZERO PUSH2 0x9BD JUMPI PUSH2 0x98E DUP2 PUSH2 0x85D JUMP JUMPDEST PUSH2 0x997 DUP5 PUSH2 0x872 JUMP JUMPDEST DUP2 ADD PUSH1 0x20 DUP6 LT ISZERO PUSH2 0x9A6 JUMPI DUP2 SWAP1 POP JUMPDEST PUSH2 0x9BA PUSH2 0x9B2 DUP6 PUSH2 0x872 JUMP JUMPDEST DUP4 ADD DUP3 PUSH2 0x959 JUMP JUMPDEST POP POP JUMPDEST POP POP POP JUMP JUMPDEST PUSH1 0x0 DUP3 DUP3 SHR SWAP1 POP SWAP3 SWAP2 POP POP JUMP JUMPDEST PUSH1 0x0 PUSH2 0x9E0 PUSH1 0x0 NOT DUP5 PUSH1 0x8 MUL PUSH2 0x9C2 JUMP JUMPDEST NOT DUP1 DUP4 AND SWAP2 POP POP SWAP3 SWAP2 POP POP JUMP JUMPDEST PUSH1 0x0 PUSH2 0x9F9 DUP4 DUP4 PUSH2 0x9CF JUMP JUMPDEST SWAP2 POP DUP3 PUSH1 0x2 MUL DUP3 OR SWAP1 POP SWAP3 SWAP2 POP POP JUMP JUMPDEST PUSH2 0xA12 DUP3 PUSH2 0x563 JUMP JUMPDEST PUSH8 0xFFFFFFFFFFFFFFFF DUP2 GT ISZERO PUSH2 0xA2B JUMPI PUSH2 0xA2A PUSH2 0x62D JUMP JUMPDEST JUMPDEST PUSH2 0xA35 DUP3 SLOAD PUSH2 0x82C JUMP JUMPDEST PUSH2 0xA40 DUP3 DUP3 DUP6 PUSH2 0x97C JUMP JUMPDEST PUSH1 0x0 PUSH1 0x20 SWAP1 POP PUSH1 0x1F DUP4 GT PUSH1 0x1 DUP2 EQ PUSH2 0xA73 JUMPI PUSH1 0x0 DUP5 ISZERO PUSH2 0xA61 JUMPI DUP3 DUP8 ADD MLOAD SWAP1 POP JUMPDEST PUSH2 0xA6B DUP6 DUP3 PUSH2 0x9ED JUMP JUMPDEST DUP7 SSTORE POP PUSH2 0xAD3 JUMP JUMPDEST PUSH1 0x1F NOT DUP5 AND PUSH2 0xA81 DUP7 PUSH2 0x85D JUMP JUMPDEST PUSH1 0x0 JUMPDEST DUP3 DUP2 LT ISZERO PUSH2 0xAA9 JUMPI DUP5 DUP10 ADD MLOAD DUP3 SSTORE PUSH1 0x1 DUP3 ADD SWAP2 POP PUSH1 0x20 DUP6 ADD SWAP5 POP PUSH1 0x20 DUP2 ADD SWAP1 POP PUSH2 0xA84 JUMP JUMPDEST DUP7 DUP4 LT ISZERO PUSH2 0xAC6 JUMPI DUP5 DUP10 ADD MLOAD PUSH2 0xAC2 PUSH1 0x1F DUP10 AND DUP3 PUSH2 0x9CF JUMP JUMPDEST DUP4 SSTORE POP JUMPDEST PUSH1 0x1 PUSH1 0x2 DUP9 MUL ADD DUP9 SSTORE POP POP POP JUMPDEST POP POP POP POP POP POP JUMP JUMPDEST PUSH1 0x0 DUP2 SWAP1 POP SWAP3 SWAP2 POP POP JUMP JUMPDEST PUSH1 0x0 PUSH2 0xAF1 DUP3 PUSH2 0x563 JUMP JUMPDEST PUSH2 0xAFB DUP2 DUP6 PUSH2 0xADB JUMP JUMPDEST SWAP4 POP PUSH2 0xB0B DUP2 DUP6 PUSH1 0x20 DUP7 ADD PUSH2 0x57F JUMP JUMPDEST DUP1 DUP5 ADD SWAP2 POP POP SWAP3 SWAP2 POP POP JUMP JUMPDEST PUSH1 0x0 PUSH2 0xB23 DUP3 DUP5 PUSH2 0xAE6 JUMP JUMPDEST SWAP2 POP DUP2 SWAP1 POP SWAP3 SWAP2 POP POP JUMP INVALID LOG2 PUSH5 0x6970667358 0x22 SLT KECCAK256 0xC9 0x2E PUSH8 0xB0534E7F8C54266B DUP4 0xED ORIGIN 0x27 0xD4 0xCE PUSH4 0xD094DF3D ADDMOD 0x2D POP SAR 0xE0 0xCE 0x4B PUSH1 0x9D 0xDF PUSH5 0x736F6C6343 STOP ADDMOD SGT STOP CALLER LOG2 PUSH5 0x6970667358 0x22 SLT KECCAK256 ORIGIN 0x4E 0xAD 0xF CODECOPY 0x1E 0x2B CODESIZE 0xD1 0x4F SAR 0xBA PUSH10 0x6A78D9A6EF9FF1B85914 0xD6 0xCE SHL 0x22 GAS DUP10 PREVRANDAO 0xE2 0xEE PUSH5 0x736F6C6343 STOP ADDMOD SGT STOP CALLER "
		},
		"gasEstimates": {
			"creation": {
				"codeDepositCost": "996400",
				"executionCost": "1034",
				"totalCost": "997434"
			},
			"external": {
				"createMyStorage()": "infinite",
				"sfRetrieve(uint256)": "infinite",
				"sfStore(uint256,uint256)": "infinite"
			}
		},
		"methodIdentifiers": {
			"createMyStorage()": "91aed508",
			"sfRetrieve(uint256)": "0f41a0b9",
			"sfStore(uint256,uint256)": "1563700f"
		}
	},
	"abi": [
		{
			"inputs": [],
			"name": "createMyStorage",
			"outputs": [],
			"stateMutability": "nonpayable",
			"type": "function"
		},
		{
			"inputs": [
				{
					"internalType": "uint256",
					"name": "_index",
					"type": "uint256"
				}
			],
			"name": "sfRetrieve",
			"outputs": [
				{
					"internalType": "uint256",
					"name": "",
					"type": "uint256"
				}
			],
			"stateMutability": "view",
			"type": "function"
		},
		{
			"inputs": [
				{
					"internalType": "uint256",
					"name": "_index",
					"type": "uint256"
				},
				{
					"internalType": "uint256",
					"name": "_myFavoriteNumber",
					"type": "uint256"
				}
			],
			"name": "sfStore",
			"outputs": [],
			"stateMutability": "nonpayable",
			"type": "function"
		}
	]
}